{
  "_format": "hh-sol-artifact-1",
  "contractName": "TestToken",
  "sourceName": "contracts/Token.sol",
  "abi": [
    {
      "inputs": [],
      "stateMutability": "nonpayable",
      "type": "constructor"
    },
    {
      "inputs": [
        {
          "internalType": "address",
          "name": "spender",
          "type": "address"
        },
        {
          "internalType": "uint256",
          "name": "allowance",
          "type": "uint256"
        },
        {
          "internalType": "uint256",
          "name": "needed",
          "type": "uint256"
        }
      ],
      "name": "ERC20InsufficientAllowance",
      "type": "error"
    },
    {
      "inputs": [
        {
          "internalType": "address",
          "name": "sender",
          "type": "address"
        },
        {
          "internalType": "uint256",
          "name": "balance",
          "type": "uint256"
        },
        {
          "internalType": "uint256",
          "name": "needed",
          "type": "uint256"
        }
      ],
      "name": "ERC20InsufficientBalance",
      "type": "error"
    },
    {
      "inputs": [
        {
          "internalType": "address",
          "name": "approver",
          "type": "address"
        }
      ],
      "name": "ERC20InvalidApprover",
      "type": "error"
    },
    {
      "inputs": [
        {
          "internalType": "address",
          "name": "receiver",
          "type": "address"
        }
      ],
      "name": "ERC20InvalidReceiver",
      "type": "error"
    },
    {
      "inputs": [
        {
          "internalType": "address",
          "name": "sender",
          "type": "address"
        }
      ],
      "name": "ERC20InvalidSender",
      "type": "error"
    },
    {
      "inputs": [
        {
          "internalType": "address",
          "name": "spender",
          "type": "address"
        }
      ],
      "name": "ERC20InvalidSpender",
      "type": "error"
    },
    {
      "anonymous": false,
      "inputs": [
        {
          "indexed": true,
          "internalType": "address",
          "name": "owner",
          "type": "address"
        },
        {
          "indexed": true,
          "internalType": "address",
          "name": "spender",
          "type": "address"
        },
        {
          "indexed": false,
          "internalType": "uint256",
          "name": "value",
          "type": "uint256"
        }
      ],
      "name": "Approval",
      "type": "event"
    },
    {
      "anonymous": false,
      "inputs": [
        {
          "indexed": true,
          "internalType": "address",
          "name": "from",
          "type": "address"
        },
        {
          "indexed": true,
          "internalType": "address",
          "name": "to",
          "type": "address"
        },
        {
          "indexed": false,
          "internalType": "uint256",
          "name": "value",
          "type": "uint256"
        }
      ],
      "name": "Transfer",
      "type": "event"
    },
    {
      "inputs": [
        {
          "internalType": "address",
          "name": "owner",
          "type": "address"
        },
        {
          "internalType": "address",
          "name": "spender",
          "type": "address"
        }
      ],
      "name": "allowance",
      "outputs": [
        {
          "internalType": "uint256",
          "name": "",
          "type": "uint256"
        }
      ],
      "stateMutability": "view",
      "type": "function"
    },
    {
      "inputs": [
        {
          "internalType": "address",
          "name": "spender",
          "type": "address"
        },
        {
          "internalType": "uint256",
          "name": "value",
          "type": "uint256"
        }
      ],
      "name": "approve",
      "outputs": [
        {
          "internalType": "bool",
          "name": "",
          "type": "bool"
        }
      ],
      "stateMutability": "nonpayable",
      "type": "function"
    },
    {
      "inputs": [
        {
          "internalType": "address",
          "name": "account",
          "type": "address"
        }
      ],
      "name": "balanceOf",
      "outputs": [
        {
          "internalType": "uint256",
          "name": "",
          "type": "uint256"
        }
      ],
      "stateMutability": "view",
      "type": "function"
    },
    {
      "inputs": [],
      "name": "burn100tokens",
      "outputs": [],
      "stateMutability": "nonpayable",
      "type": "function"
    },
    {
      "inputs": [],
      "name": "decimals",
      "outputs": [
        {
          "internalType": "uint8",
          "name": "",
          "type": "uint8"
        }
      ],
      "stateMutability": "view",
      "type": "function"
    },
    {
      "inputs": [],
      "name": "mint100tokens",
      "outputs": [],
      "stateMutability": "nonpayable",
      "type": "function"
    },
    {
      "inputs": [],
      "name": "name",
      "outputs": [
        {
          "internalType": "string",
          "name": "",
          "type": "string"
        }
      ],
      "stateMutability": "view",
      "type": "function"
    },
    {
      "inputs": [],
      "name": "symbol",
      "outputs": [
        {
          "internalType": "string",
          "name": "",
          "type": "string"
        }
      ],
      "stateMutability": "view",
      "type": "function"
    },
    {
      "inputs": [],
      "name": "totalSupply",
      "outputs": [
        {
          "internalType": "uint256",
          "name": "",
          "type": "uint256"
        }
      ],
      "stateMutability": "view",
      "type": "function"
    },
    {
      "inputs": [
        {
          "internalType": "address",
          "name": "to",
          "type": "address"
        },
        {
          "internalType": "uint256",
          "name": "value",
          "type": "uint256"
        }
      ],
      "name": "transfer",
      "outputs": [
        {
          "internalType": "bool",
          "name": "",
          "type": "bool"
        }
      ],
      "stateMutability": "nonpayable",
      "type": "function"
    },
    {
      "inputs": [
        {
          "internalType": "address",
          "name": "from",
          "type": "address"
        },
        {
          "internalType": "address",
          "name": "to",
          "type": "address"
        },
        {
          "internalType": "uint256",
          "name": "value",
          "type": "uint256"
        }
      ],
      "name": "transferFrom",
      "outputs": [
        {
          "internalType": "bool",
          "name": "",
          "type": "bool"
        }
      ],
      "stateMutability": "nonpayable",
      "type": "function"
    }
  ],
  "bytecode": "0x60806040523480156200001157600080fd5b506040518060400160405280600781526020017f5472756f4e465400000000000000000000000000000000000000000000000000815250604051806020016040528060008152508160039081620000699190620002fe565b5080600490816200007b9190620002fe565b505050620003e5565b600081519050919050565b7f4e487b7100000000000000000000000000000000000000000000000000000000600052604160045260246000fd5b7f4e487b7100000000000000000000000000000000000000000000000000000000600052602260045260246000fd5b600060028204905060018216806200010657607f821691505b6020821081036200011c576200011b620000be565b5b50919050565b60008190508160005260206000209050919050565b60006020601f8301049050919050565b600082821b905092915050565b600060088302620001867fffffffffffffffffffffffffffffffffffffffffffffffffffffffffffffffff8262000147565b62000192868362000147565b95508019841693508086168417925050509392505050565b6000819050919050565b6000819050919050565b6000620001df620001d9620001d384620001aa565b620001b4565b620001aa565b9050919050565b6000819050919050565b620001fb83620001be565b620002136200020a82620001e6565b84845462000154565b825550505050565b600090565b6200022a6200021b565b62000237818484620001f0565b505050565b5b818110156200025f576200025360008262000220565b6001810190506200023d565b5050565b601f821115620002ae57620002788162000122565b620002838462000137565b8101602085101562000293578190505b620002ab620002a28562000137565b8301826200023c565b50505b505050565b600082821c905092915050565b6000620002d360001984600802620002b3565b1980831691505092915050565b6000620002ee8383620002c0565b9150826002028217905092915050565b620003098262000084565b67ffffffffffffffff8111156200032557620003246200008f565b5b620003318254620000ed565b6200033e82828562000263565b600060209050601f83116001811462000376576000841562000361578287015190505b6200036d8582620002e0565b865550620003dd565b601f198416620003868662000122565b60005b82811015620003b05784890151825560018201915060208501945060208101905062000389565b86831015620003d05784890151620003cc601f891682620002c0565b8355505b6001600288020188555050505b505050505050565b610fad80620003f56000396000f3fe608060405234801561001057600080fd5b50600436106100a95760003560e01c806332c5e6271161007157806332c5e627146101685780633843971a1461017257806370a082311461017c57806395d89b41146101ac578063a9059cbb146101ca578063dd62ed3e146101fa576100a9565b806306fdde03146100ae578063095ea7b3146100cc57806318160ddd146100fc57806323b872dd1461011a578063313ce5671461014a575b600080fd5b6100b661022a565b6040516100c39190610c01565b60405180910390f35b6100e660048036038101906100e19190610cbc565b6102bc565b6040516100f39190610d17565b60405180910390f35b6101046102df565b6040516101119190610d41565b60405180910390f35b610134600480360381019061012f9190610d5c565b6102e9565b6040516101419190610d17565b60405180910390f35b610152610318565b60405161015f9190610dcb565b60405180910390f35b610170610321565b005b61017a610336565b005b61019660048036038101906101919190610de6565b61034b565b6040516101a39190610d41565b60405180910390f35b6101b4610393565b6040516101c19190610c01565b60405180910390f35b6101e460048036038101906101df9190610cbc565b610425565b6040516101f19190610d17565b60405180910390f35b610214600480360381019061020f9190610e13565b610448565b6040516102219190610d41565b60405180910390f35b60606003805461023990610e82565b80601f016020809104026020016040519081016040528092919081815260200182805461026590610e82565b80156102b25780601f10610287576101008083540402835291602001916102b2565b820191906000526020600020905b81548152906001019060200180831161029557829003601f168201915b5050505050905090565b6000806102c76104cf565b90506102d48185856104d7565b600191505092915050565b6000600254905090565b6000806102f46104cf565b90506103018582856104e9565b61030c85858561057d565b60019150509392505050565b60006012905090565b6103343368056bc75e2d63100000610671565b565b6103493368056bc75e2d631000006106f3565b565b60008060008373ffffffffffffffffffffffffffffffffffffffff1673ffffffffffffffffffffffffffffffffffffffff168152602001908152602001600020549050919050565b6060600480546103a290610e82565b80601f01602080910402602001604051908101604052809291908181526020018280546103ce90610e82565b801561041b5780601f106103f05761010080835404028352916020019161041b565b820191906000526020600020905b8154815290600101906020018083116103fe57829003601f168201915b5050505050905090565b6000806104306104cf565b905061043d81858561057d565b600191505092915050565b6000600160008473ffffffffffffffffffffffffffffffffffffffff1673ffffffffffffffffffffffffffffffffffffffff16815260200190815260200160002060008373ffffffffffffffffffffffffffffffffffffffff1673ffffffffffffffffffffffffffffffffffffffff16815260200190815260200160002054905092915050565b600033905090565b6104e48383836001610775565b505050565b60006104f58484610448565b90507fffffffffffffffffffffffffffffffffffffffffffffffffffffffffffffffff81146105775781811015610567578281836040517ffb8f41b200000000000000000000000000000000000000000000000000000000815260040161055e93929190610ec2565b60405180910390fd5b61057684848484036000610775565b5b50505050565b600073ffffffffffffffffffffffffffffffffffffffff168373ffffffffffffffffffffffffffffffffffffffff16036105ef5760006040517f96c6fd1e0000000000000000000000000000000000000000000000000000000081526004016105e69190610ef9565b60405180910390fd5b600073ffffffffffffffffffffffffffffffffffffffff168273ffffffffffffffffffffffffffffffffffffffff16036106615760006040517fec442f050000000000000000000000000000000000000000000000000000000081526004016106589190610ef9565b60405180910390fd5b61066c83838361094c565b505050565b600073ffffffffffffffffffffffffffffffffffffffff168273ffffffffffffffffffffffffffffffffffffffff16036106e35760006040517fec442f050000000000000000000000000000000000000000000000000000000081526004016106da9190610ef9565b60405180910390fd5b6106ef6000838361094c565b5050565b600073ffffffffffffffffffffffffffffffffffffffff168273ffffffffffffffffffffffffffffffffffffffff16036107655760006040517f96c6fd1e00000000000000000000000000000000000000000000000000000000815260040161075c9190610ef9565b60405180910390fd5b6107718260008361094c565b5050565b600073ffffffffffffffffffffffffffffffffffffffff168473ffffffffffffffffffffffffffffffffffffffff16036107e75760006040517fe602df050000000000000000000000000000000000000000000000000000000081526004016107de9190610ef9565b60405180910390fd5b600073ffffffffffffffffffffffffffffffffffffffff168373ffffffffffffffffffffffffffffffffffffffff16036108595760006040517f94280d620000000000000000000000000000000000000000000000000000000081526004016108509190610ef9565b60405180910390fd5b81600160008673ffffffffffffffffffffffffffffffffffffffff1673ffffffffffffffffffffffffffffffffffffffff16815260200190815260200160002060008573ffffffffffffffffffffffffffffffffffffffff1673ffffffffffffffffffffffffffffffffffffffff168152602001908152602001600020819055508015610946578273ffffffffffffffffffffffffffffffffffffffff168473ffffffffffffffffffffffffffffffffffffffff167f8c5be1e5ebec7d5bd14f71427d1e84f3dd0314c0f7b2291e5b200ac8c7c3b9258460405161093d9190610d41565b60405180910390a35b50505050565b600073ffffffffffffffffffffffffffffffffffffffff168373ffffffffffffffffffffffffffffffffffffffff160361099e5780600260008282546109929190610f43565b92505081905550610a71565b60008060008573ffffffffffffffffffffffffffffffffffffffff1673ffffffffffffffffffffffffffffffffffffffff16815260200190815260200160002054905081811015610a2a578381836040517fe450d38c000000000000000000000000000000000000000000000000000000008152600401610a2193929190610ec2565b60405180910390fd5b8181036000808673ffffffffffffffffffffffffffffffffffffffff1673ffffffffffffffffffffffffffffffffffffffff16815260200190815260200160002081905550505b600073ffffffffffffffffffffffffffffffffffffffff168273ffffffffffffffffffffffffffffffffffffffff1603610aba5780600260008282540392505081905550610b07565b806000808473ffffffffffffffffffffffffffffffffffffffff1673ffffffffffffffffffffffffffffffffffffffff168152602001908152602001600020600082825401925050819055505b8173ffffffffffffffffffffffffffffffffffffffff168373ffffffffffffffffffffffffffffffffffffffff167fddf252ad1be2c89b69c2b068fc378daa952ba7f163c4a11628f55a4df523b3ef83604051610b649190610d41565b60405180910390a3505050565b600081519050919050565b600082825260208201905092915050565b60005b83811015610bab578082015181840152602081019050610b90565b60008484015250505050565b6000601f19601f8301169050919050565b6000610bd382610b71565b610bdd8185610b7c565b9350610bed818560208601610b8d565b610bf681610bb7565b840191505092915050565b60006020820190508181036000830152610c1b8184610bc8565b905092915050565b600080fd5b600073ffffffffffffffffffffffffffffffffffffffff82169050919050565b6000610c5382610c28565b9050919050565b610c6381610c48565b8114610c6e57600080fd5b50565b600081359050610c8081610c5a565b92915050565b6000819050919050565b610c9981610c86565b8114610ca457600080fd5b50565b600081359050610cb681610c90565b92915050565b60008060408385031215610cd357610cd2610c23565b5b6000610ce185828601610c71565b9250506020610cf285828601610ca7565b9150509250929050565b60008115159050919050565b610d1181610cfc565b82525050565b6000602082019050610d2c6000830184610d08565b92915050565b610d3b81610c86565b82525050565b6000602082019050610d566000830184610d32565b92915050565b600080600060608486031215610d7557610d74610c23565b5b6000610d8386828701610c71565b9350506020610d9486828701610c71565b9250506040610da586828701610ca7565b9150509250925092565b600060ff82169050919050565b610dc581610daf565b82525050565b6000602082019050610de06000830184610dbc565b92915050565b600060208284031215610dfc57610dfb610c23565b5b6000610e0a84828501610c71565b91505092915050565b60008060408385031215610e2a57610e29610c23565b5b6000610e3885828601610c71565b9250506020610e4985828601610c71565b9150509250929050565b7f4e487b7100000000000000000000000000000000000000000000000000000000600052602260045260246000fd5b60006002820490506001821680610e9a57607f821691505b602082108103610ead57610eac610e53565b5b50919050565b610ebc81610c48565b82525050565b6000606082019050610ed76000830186610eb3565b610ee46020830185610d32565b610ef16040830184610d32565b949350505050565b6000602082019050610f0e6000830184610eb3565b92915050565b7f4e487b7100000000000000000000000000000000000000000000000000000000600052601160045260246000fd5b6000610f4e82610c86565b9150610f5983610c86565b9250828201905080821115610f7157610f70610f14565b5b9291505056fea264697066735822122047d20148e9607de28f5c052372b8707466f93ec28268160848688e46c57ffd6864736f6c63430008140033",
  "linkReferences": {},
  "deployedLinkReferences": {}
}